:02000004900169
:10000000000400206DAD0390BD790390C179039089
:10001000417A0390497A03906B7A039000000000C4
:1000200000000000000000000000000045560190A4
:10003000737A039000000000ED550190452F019068
:1000400021AF03900000000025AF039029AF03907B
:100050002DAF039031AF03900000000000000000BE
:1000600035AF039039AF03903DAF0390000000001F
:100070000000000041AF03900000000000000000FD
:1000800045AF039049AF03904DAF039051AF03903C
:1000900055AF039059AF03905DAF039061AF0390EC
:1000A00065AF039069AF03906DAF039071AF03909C
:1000B00075AF039079AF03907DAF039081AF03904C
:1000C00085AF039089AF03908DAF039091AF0390FC
:1000D00095AF039099AF0390757A03909DAF03900D
:1000E000A1AF0390A5AF0390A9AF0390ADAF03906C
:1000F000B1AF0390B5AF0390B9AF0390BDAF03901C
:100100007B7A0390C1AF0390C5AF0390C9AF039052
:10011000CDAF0390D1AF0390D5AF0390D9AF03908B
:10012000DDAF0390E1AF0390E5AF0390E9AF03903B
:10013000EDAF0390F1AF0390F5AF0390F9AF0390EB
:10014000FDAF039001B0039005B0039009B0039098
:100150000DB0039011B0039015B0039019B0039047
:100160001DB0039021B0039025B0039029B00390F7
:10017000817A03902DB00390877A039031B0039079
:1001800035B0039039B003908D7A0390937A039041
:100190003DB00390997A039041B003909F7A039009
:1001A000A57A039045B0039049B003904DB00390F9
:1001B00051B0039055B0039059B003905DB00390D7
:1001C000000000000000000061B0039065B00390E3
:1001D00069B003906DB0039071B0039075B0039057
:1001E00079B003907DB0039081B0039085B0039007
:1001F000AB7A039089B0039000000000000000007B
:10020000B17A03908DB0039091B0039095B00390B4
:1002100099B003909DB00390A1B00390A5B0039056
:10022000A9B00390ADB00390B1B00390B5B0039006
:10023000B9B00390BDB00390C1B00390C5B00390B6
:10024000C9B00390CDB00390D1B00390D5B0039066
:10025000D9B00390DDB00390E1B00390E5B0039016
:10026000E9B00390EDB00390F1B00390F5B00390C6
:10027000F9B00390FDB0039001B1039005B1039074
:1002800009B103900DB1039011B1039015B1039022
:1002900019B1039000000000000000000000000001
:1002A000B77A0390BD7A0390B97A0390C57A039028
:1002B0004178007840EA01207047C278817841EAAD
:1002C00002214278007842EA012240EA0220704787
:1002D0000170090A417070470170090A4170090AEA
:1002E0008170090AC170704738B505462C6814F84A
:1002F000010B38B140F2523102F0C7FC10B94FF097
:10030000FF3032BD2C6032BD70B506460D46B07868
:1003100002F022FD040018BF002D0CD0012002F0D5
:100320001BFD0400B07804D0974948700220087083
:1003300001E002F01DFD204670BD10B5040018BF9D
:100340000C2915D00B2918BF0F2911D08E48017820
:10035000022902BF4278A1788A4204D101230370A6
:10036000012002F005FDA078BDE8104002F000BDBC
:1003700010BDF0B5024600230025844C04EB0516A1
:10038000306888B11768B84202BF776890688742C2
:1003900002BFB0685669B04207D1022D09D18BB9AE
:1003A00002290FD01220F0BD01236D1C022DE5D3D0
:1003B000F3E729B904EB0512D068B0F5807F01D1CD
:1003C0001020F0BD0020F0BD2DE9F0416F4F00225C
:1003D0008568066807F1040807F1080C1301FC584A
:1003E000B44204BF58F80340AC4202BF5CF803407B
:1003F00043699C4202D0521C012AEFD9022A11D132
:100400003B680022002B1EBF01223C69002C0FD14B
:100410001301FC1826606560456907F10800C550A6
:100420000023E360002907EB021303DDD86810B155
:10043000002007E002D04FF4807001E0D868401C33
:10044000D860501CBDE8F081401E022812D2000185
:100450004E4A1318D968B1F5807F18BF002902D120
:100460000021D96002E0491ED96001D1002111505C
:10047000002070470220704730B500234349002414
:100480001A018D58854208BF8C505B1C012BF7D98F
:1004900030BD38B5044600252079A0B16078226BC4
:1004A00000F013F870B9206B636AE2692571C31A12
:1004B000934208D2E178022905D11218607800F041
:1004C00004F800E00125284632BD012304F134017F
:1004D00002F082BC70B504460D46206B00268542B2
:1004E00010D02046FFF7D5FF06000BD1607801231E
:1004F0002A4604F1340102F069FC10B14FF0FF35D7
:1005000001262563304670BD38B50446FFF7C1FFAC
:10051000050037D12178032904BF607901282AD149
:100520004FF4007104F1340002F072FC4AF65521D8
:1005300004F23220FFF7CCFE154904F13400FFF736
:10054000CBFE144904F50670FFF7C6FE616904F599
:100550000770FFF7C1FE216904F50870FFF7BCFEC4
:10056000226A6078012304F13401521C226302F0F4
:1005700033FC0020607160780022002102F03AFC18
:1005800000B10125284632BDBC6C0324AC6B0324AA
:1005900052526141727241618269891E921E91427A
:1005A00001D300207047C26A408901FB0021084640
:1005B00070472DE9F0410C46012C056852D9A86915
:1005C00084424FD22A784FF0FF36012A04D049D313
:1005D000032A36D025D345E004EB5407696A284640
:1005E00001EB5721FFF776FF00283CD1696A05F13E
:1005F0003402C7F308007F1C01EB572112F800807A
:100600002846FFF767FF70BB05F13400C7F3080702
:10061000C15DE20748EA012654BFC6F30B0636095E
:1006200021E0696A284601EB1421FFF753FFD0B996
:1006300005F13400240600EBD450FFF739FE0646DE
:1006400011E0696A284601EBD411FFF743FF50B966
:1006500005F13400640600EBD450FFF72EFE20F0C5
:10066000704600E001263046BDE8F0812DE9F041FA
:100670000F46012F044615464FF0020867D9A069BE
:10068000874264D22278012A04D060D3032A44D05E
:100690002FD35CE007EB5706616A00F05BF85FEA76
:1006A000000854D104F13402C6F30800761C10444B
:1006B000F90743BF017801F00F0141EA051129460E
:1006C00001700120616A207100F044F85FEA0008BF
:1006D0003DD104F13400C6F308068119FA0748BF7A
:1006E0002D0904D408782D0A65F3030005460D7022
:1006F00010E0616A204601EB1721FFF7EBFE5FEA8D
:10070000000824D104F134003F0600EBD750A9B211
:10071000FFF7DEFD0121217119E0616A204601EB3E
:10072000D711FFF7D7FE5FEA000810D104F13400BB
:100730007F0600EBD7573846FFF7BFFD000F60F389
:100740001F7529463846FFF7C7FD01202071404636
:10075000BDE8F081204601EB5621BBE6F8B5054621
:100760000E46012E11462F6829D9BB699E4226D21A
:1007700029B14FF0FF3200F096F8010024D1314644
:100780002846FFF716FF04001DD0012C17D014F1E6
:10079000010F16D00022314600F085F8010013D178
:1007A000B8697A69811E8A4205D2521C7A617A79C7
:1007B00042F001027A7126468642E0D303E002202D
:1007C000F2BD0120F2BD0020F2BD2DE9F0410C0088
:1007D0008046D8F8007006D13E6916B1B8698642E5
:1007E0000ED301260CE0FFF7E4FE012898BF01209C
:1007F00057D910F1010F54D0B969884251D3264618
:10080000786968B3A64217D1B969751C8D4228BFB3
:10081000022529464046FFF7CCFE012818BF10F1FB
:10082000010F3ED038B13969012905D9B869814233
:1008300002D20E4600E0ADB93546B8696D1C85425E
:1008400002D30225012E0BD929464046FFF7B1FEFF
:1008500040B1012818BF10F1010F22D0B542ECD1F0
:1008600000201EE04FF0FF32294600F01CF890B93E
:1008700024B12A46214600F016F860B9B8697969B2
:100880003D61801E884224BF491E7961787940F01D
:100890000100787104E001280CBF4FF0FF350125FD
:1008A0002846BDE8F0813846E0E60368C26A490A96
:1008B0005889121DB1FBF0F003E0884206D3401ABC
:1008C000083211680029F8D10020704751680818D3
:1008D000704770B504460D46FFF7DBFDF8B92946B1
:1008E0002046FFF759FE05464FF40071256304F1D9
:1008F000340002F08DFA002600E0761C6089864202
:1009000008D260780123721904F1340102F064FA0C
:100910000028F2D06089864201D1002070BD0120FC
:1009200070BD2DE9F0410E460546B6F5001F2F6853
:100930002ED216F01F0F2BD1AC686E6154B93878E7
:10094000032801DBBC6A2CB93889490981421FD2CE
:10095000B86A19E0B7F80A8006E0022C18D3B86923
:10096000844215D2A6EB4826B6EB482F214608D381
:100970002846FFF71EFE044614F1010FEDD10120B9
:1009800012E03846FFF708FEE861E869AC6108B993
:10099000022009E000EB5620C6F30806E861B91909
:1009A00001F1340028620020BDE8F0812DE9F0411A
:1009B00006468846746937682034B4F5001F02D3B0
:1009C0000020F06122E0F06900B3E1053CD1B1699B
:1009D000401CF06121B939896009884234D313E0A1
:1009E0007889401E10EA542F2ED13046FFF7E1FDE2
:1009F0000546012D16D915F1010F1DD0B8698542A4
:100A00001CD3B8F1000F03D10021F161042023E0D1
:100A1000B1693046FFF7D9FE050008BF07201BD09B
:100A2000012D01D1022017E015F1010F04D0294654
:100A30003846FFF74EFF08B101200DE0B5612946A9
:100A40003846FFF7A9FDF0617461C4F30804391951
:100A500001F1340030620020BDE8F081F8B50446B1
:100A60000D4626680021FFF75CFF010017D1002723
:100A7000E1693046FFF72EFD010010D1216A0978A7
:100A8000E52918BF002903D17F1CAF4201D1F2BD77
:100A9000002701212046FFF789FF0100E8D0042844
:100AA00008BF0720F2BD70B506460C4604F11A00D7
:100AB000FFF7FEFB31780546032905D104F1140048
:100AC000FFF7F6FB45EA0045284670BD70B50646BF
:100AD0000C461546A9B204F11A00FFF7F9FB31786C
:100AE000032906D1290C04F11400BDE87040FFF77A
:100AF000EFBB70BD024600200B210306C00100EBD6
:100B0000536312F8010B1818491EF6D1C0B2704792
:100B10002DE9F24F82B005462868FF264FF0040801
:100B20000090B146E969002967D00098FFF7D2FC30
:100B30005FEA000861D12C6A2078A8B3E17AE52841
:100B400001F03F01A97118BF2E285CD021F02002CE
:100B5000082A14BF00230123029A934253D10F297C
:100B60005AD1410606D594F80D9000F0BF0069698E
:100B700006462963F1B2884204BF627B914542D1A7
:100B80000098D0F80C8004F11A00FFF791FB0028C0
:100B900039D120780D2101274FF0000A20F04000C4
:100BA00000F0EAF8019002E04FF0040828E0019913
:100BB00011F80A002044FFF77BFB4FB1BBF5807FA3
:100BC0003EBF074628F81B700BF1010B04D31AE057
:100BD0004FF6FF71884216D10AF1010ABAF10D0FE2
:100BE000E5D32078410606D52FB1BBF5807F0AD228
:100BF000002028F81B00761E06E05FEA080001D0FE
:100C00000020E861B5E0FF2600212846FFF7CEFE70
:100C10005FEA000886D0F0E74FF0FF37F6B20EB17A
:100C20002F63EFE72046FFF765FF8145EAD0F7E73E
:100C30002DE9FE4F0646002132680192FFF771FE52
:100C40005FEA000843D1FF224FF0FF300092FF27F8
:100C50003063F1690198FFF73DFC5FEA000836D187
:100C6000346A207888B3E27AE52802F03F02B27154
:100C700073D011072CD50F2A6FD196F82F2051066B
:100C80006FD4430606D5617B00F0BF000746009194
:100C900072693263F9B2884202BF0098617B884270
:100CA00046D1019A04F11A00D2F80C80FFF700FB3C
:100CB00000283DD120780D214FF0010A002500F0D9
:100CC0003F0000F059F8029005E04FF0040850E0B2
:100CD0000F2A2FD1D1E70298415D6018FFF7E8FA9B
:100CE000BAF1000F814610D0BBF5807F20D201F011
:100CF000E1FF824638F81B000BF1010B01F0DAFF2F
:100D0000824508BFCA4604D012E04FF6FF70814505
:100D10000ED16D1C0D2DDED321784A0606D5BAF111
:100D2000000F1CBF38F81B00002801D17F1E18E0FF
:100D3000FF2716E0FFB22FB9009F2046FFF7DAFE2B
:100D4000874216D096F82F00C10706D4306A0B22CE
:100D500006F1240102F09EF858B14FF0FF30FF2752
:100D6000306300213046FFF721FE5FEA00083FF4C0
:100D700070AF4046BDE8FE8FB0F1010001FB00FB03
:100D80008AA070472DE9F04F87B083469BF82F006B
:100D9000DBF8007010F0A00F18BF062040F00281B1
:100DA0004FF0000901E009F10109F96831F8190073
:100DB0000028F8D10BF1240303A993E8150081E87A
:100DC00015009DF81740E1075DD5402001268BF8FE
:100DD0002F00D7F80CA00B2203A90BF124003546F5
:100DE00002F074F8062D15D310E03AF8021B10201B
:100DF0002B4601F0010505EB43054908EA0344BF12
:100E000085F4883585F02105401EF1D1BAF800003F
:100E10000028EAD1072005F00F0230322D093A2AC6
:100E2000A8BFD21D0DF80020401E18BF002DF2D122
:100E30007E210BF124020DF80010002100E0491C76
:100E4000814202D2535C202BF9D10D46691C072840
:100E50009ABF1DF80020401C202207290BF1240313
:100E60005A55F2D95846FFF7E3FE050002D1761C29
:100E7000642EAED3642E08BF072000F093800428B0
:100E800075D18BF82F40A10706D509F10C010D2073
:100E9000B1FBF0F4641C00E0012421465846FFF742
:100EA000DDFD050062D1641E019461D0DBF81410F1
:100EB0006FF01F0000FB04115846FFF732FD0500DC
:100EC00054D10BF124004FF6FF74FFF713FE8DF899
:100ED000000000F073F8050048D1DBF82050F868F6
:100EE0009DF800100290019E002069730F22287364
:100EF0000021EA7205F11A00FFF7EAF9F0B2401E8C
:100F00005FF00D014FF0000801FB00F927A00690EB
:100F100001E0A24504D0029931F819A009F10109B4
:100F2000069A514612F808002844FFF7D1F9BAF1A1
:100F3000000F08BFA24608F10108B8F10C0FE8D96C
:100F4000A2451DBF029931F81900002846F040065D
:100F50002E700121397100215846FFF727FD050049
:100F600004D10199491E0191B3D101E0280018D1A3
:100F700000F024F8050014D1DBF82000202101F056
:100F8000B1FFDBF820000B220BF1240101F09EFFE2
:100F90009BF82F00DBF82010012200F018000873E6
:100FA0003A71284607B0BDE8F08F0000010305073D
:100FB000090E10121416181C1E000000DBF81C107D
:100FC0003846FFF787BA70B50446216B2568666915
:100FD00011F1010F0CBF0020FFF7A3FC010016D197
:100FE000E1692846FFF776FA01000DD1216AE52272
:100FF00001230A702B716269B24208D20021204697
:10100000FFF7D4FC0100EBD0042808BF022070BD1C
:101010002DE9F84F07460D463E680021A975F8698D
:10102000002800F0A080396B11F1010F41D04FF082
:10103000000BD946D84600E08046F06830F8190029
:1010400068B3B8F1000F09F1010904D1A0F55844C3
:10105000B4F5006FF0D340EA084005F1160303EB46
:101060000B0A40F25231CBF1FF0401F0F1FDB0F573
:10107000807F09DB012C81BF010A8AF800108AF801
:101080000100022005D808E038B134B10AF8010B9C
:10109000012083444FF00008CFE74FF0000BB8F178
:1010A000000F18BF4FF0000B002005F1160101F8EA
:1010B0000B00002000212E2305F1090405F109068B
:1010C0003A6A525C491C202A0AD0052A08BFE52248
:1010D000092903D10C283CBF2354401C3254401C26
:1010E0000B29EDD3002205F109031A54A97D29BB70
:1010F00018B93F200123A87518E00023082410E048
:101100002E2808BF1024A0F141011A2904D23E6AFA
:10111000317B214218BF203005F11606521CF054D5
:101120005B1C05F10900805C0028E9D1002105F174
:101130001602D1543B6A187B00B96972386AC17AC9
:1011400001F03F0129723A6A02F11C00FFF7B5F87D
:101150002860386A1630FFF7ABF8E880386A183034
:10116000FFF7A6F8A880BDE8F18F00002DE9F14F48
:1011700086B00268049201E0019B591C019101981C
:1011800000782F2818BF5C28F6D006980021DFF8D9
:10119000B8888160019A1178202915D2069A80209A
:1011A000002102F12403D8720698FFF7BAFB12E17E
:1011B0005A6904990498C2F308028B1803F13401A8
:1011C000FFF771FC06998860069901980090002449
:1011D00085A50A68D2F80CB012E02F2F18BF5C2F3B
:1011E00022D07F2F06DC3946284601F07FFE0028FA
:1011F00040F0F280FF2C80F0EF802BF81470641C1C
:101200006846FFF771F8074617F1010F28D0B7F5C8
:10121000803F03D3000C2BF81400641CBFB2202FB6
:10122000DBDA0AE0501C0090009A10782F2818BFD3
:101230005C28F7D00027202800D204270099ABF1C2
:101240000202019100E0641E02922CB132F81400F7
:10125000202818BF2E28F6D00020002C2BF81400D0
:1012600000F0BA80814601E009F101093BF819005C
:101270002028F9D0B9F1000F47F0030017D0074636
:10128000029830F814102E2901D0641EF8D1069966
:101290002022002600254FF0080A01F124000B212E
:1012A000029001F02FFECDF814B0A34605E0BBF884
:1012B00000102E29E4D1E2E70F46059830F81940D6
:1012C00009F10109002C57D0202C47F00301F3D07D
:1012D0002E2C01D1D945EFD155453DD2D9453BD032
:1012E0007F2C0DDD40F25231204601F0B1FC044666
:1012F00047F00207210644BF04F07F0418F80440B9
:10130000B4F5807F47F0030003900BDBAAF10101E5
:101310008D4202D307465546CFE70298210A415530
:101320006D1C15E094B1214632A001F0DFFD68B9D3
:10133000A4F141011A2938BF46F00206A4F1610068
:101340001A2805D246F00106203C01E05F24039FE5
:10135000029844556D1CB0E7BAF10B0F0BD0D9457C
:1013600018BF0F46CB4521BFD94608254FF00B0AC1
:10137000B600A2D200E00F46069B03F124042278B7
:10138000E52A04BF05212170BAF1080F08BFB60095
:10139000F1B201F00C000C281ABF01F0030103297F
:1013A00047F00207B80707D4F10748BF47F0100716
:1013B000700748BF47F00807E7720698FFF738FC48
:1013C0000200E17A0AD1490705D4069B9A79D00632
:1013D0003FF5EEAE0520E5E50620FCE70428FAD14E
:1013E0004907F8D4F6E700002A3A3C3E7C223F7FCA
:1013F000000000002B2C3B3D5B5D000030B501463A
:101400004FF0FF300A68140016D014F8013B202B6F
:1014100002D33A2BF9D101E03A2B0CD11378A3F186
:1014200030050A2D08D2921CA24205D1303B03DCC4
:1014300018460C6030BD002030BD0000F8B50446F1
:1014400000234FF0FF3223712263FFF743F808B106
:101450000420F2BD04F2322004F13406FEF728FF26
:10146000054630784AF65527EB281CBFE928E828BE
:101470003AD1BD4206D108221EA104F1860001F036
:1014800009FD78B304F13F00FEF712FF01464A1E42
:10149000707B114208BFB1F5007F25D120B3411EFA
:1014A000084221D104F14200FEF702FFE0B1307C96
:1014B000401E022818D204F14500FEF7F9FE98B14B
:1014C00004F14700FEF7F4FE802806DA04F1540028
:1014D000FEF7F3FEB0F5803F06D304F14A00FEF7B5
:1014E000E7FE08B10020F2BDBD4201D10220F2BDED
:1014F0000320F2BD4641543332202020000000007A
:101500002DE9FF410F46002115463960FFF776FFB0
:10151000002848BF0B2006D4DFF8306506EB8000BA
:1015200044680CB90C2014E101212046FEF7ECFEC2
:1015300008B90F200DE13C60207805F0FE0548B1A8
:10154000607801F025FCC10704D4002D01D04207CA
:101550000CD4FDE000202070607801F025FCC1076C
:1015600048BF032003D41DB1400701D50A20F0E095
:1015700000212046FFF762FF022814D1002704EB68
:10158000071000F5FD70FEF798FE4DF827007F1C50
:10159000032FF4D900275DF8271041B12046FFF74B
:1015A0004DFF012804D8042806D10120D1E00320F2
:1015B0007F1C032FEFD9F6E7012818D8276B04F119
:1015C0003F00FEF775FEB0F5007F10D104F14A0030
:1015D000FEF76EFE18B904F15800FEF76EFEE061EA
:1015E00004F14101CA78E270012A18BF022A6FD1C2
:1015F0005043804608780200608169D0411E08424D
:1016000066D104F14500FEF753FE2081207A10F0E8
:101610000F0F5DD104F14700FEF74AFE050004D12B
:1016200004F15400FEF749FE054604F14200FEF7BE
:101630003FFE00284CD0218908EB000303EB111377
:101640009D4245D36289ED1AB5FBF2F2002A3FD0E4
:101650000025DFF8FCC3624538BF03254FF6F67E50
:10166000724538BF022540F6F67C624538BF012539
:1016700000D36DB3921CC019DB19032DA261276240
:101680006062E36210D104F15E00FEF711FE0028F3
:1016900004BF208900281BD104F16000FEF70DFE75
:1016A000A062A06980000DE091B1606A022D404403
:1016B000A062A0690FBF400000EB400100F00100F4
:1016C00000EB5100E26900F2FF10B2EB502F01D2A3
:1016D0000D203EE04FF0FF30606120618020032D3F
:1016E00060712DD104F16400FEF7E2FD012827D1DD
:1016F000791C2046FEF7EEFE10BB607104F232202A
:10170000FEF7D6FD4AF65521884219D104F134007E
:10171000FEF7D3FDDFF83C23904211D104F50670AB
:10172000FEF7CBFDDFF83013884209D104F50770CE
:10173000FEF7C3FD606104F50870FEF7BEFD206191
:101740002570758820466D1CE580FEF795FE758036
:10175000002004B0BDE8F08170B5044609260D46AE
:10176000002C1CBF2068002817D00178A9B1A388DD
:10177000C288934211D10021FEF7C6FD60B12268F4
:10178000507801F005FBC00702D40026206805E070
:10179000206800F05AFB00E00F2600202860304649
:1017A00070BD2DE9F34182B0904600916846FFF785
:1017B00025FE060048BF0B2038D4A44F07EB860552
:1017C0006C684CB1002068602046FEF755FE30463C
:1017D00001F0BDFA002121700298C0B14670029854
:1017E0008670304601F0A8FA40B1387850B901202F
:1017F00001F0A2FA20B9304601F0A9FA022015E062
:1018000001223A70029800210170029A6A60B8F1D0
:10181000000F08BF002009D0002202A903A8FFF78B
:101820006FFE0446029800F0C7F9204691E72DE9C3
:10183000F241ADF50F7D040008BF092000F0C5801E
:1018400002F03F073A4669468FA8FFF759FE0600A7
:1018500040F0B48000F076FD8F99FFF787FC06001A
:101860000DD19DF83300010648BF062607D417F0B6
:10187000FE0118BF012101A8FEF77BFD064617F007
:101880001C0F00F0B080300000F0A380042E49D17E
:101890007248016800291EBF00690028122603D182
:1018A00001A8FFF76FFA0646310047F0080738D164
:1018B00038073CD501F043FB0546099829460E3010
:1018C000FEF70AFD099829461630FEF705FDDDF8FA
:1018D000248000984146FFF7E6F80546202088F866
:1018E0000B00099900980022FFF7F0F809980021F1
:1018F0001C30FEF7F1FC0098012101719DB10099A7
:10190000002201A8D1F830802946FEF727FF060003
:1019100007D1009841466D1EFEF7DCFD0646009893
:10192000056130004CD1380748BF47F040070099A7
:10193000086B60620999A16217F0FE0118BF0121CE
:1019400001A8FEF741FD00285BD02061099D0098A9
:101950002946FFF7A8F8A06005F11C00FEF7ADFCD2
:10196000E0600020E062009A226000990022C888AE
:10197000277562754FF40071A08004F13000226277
:10198000A26101F045FAB8061CD5E568D5B1A5619C
:101990000098A16847897F02AF420CD22046FEF72B
:1019A00008FE0146012930D911F1010F2FD0ED1B9E
:1019B0003000F1D030E0E805E1612FD1300001D0F6
:1019C0000021216000F0D0FB30460DF5107DBDE810
:1019D000F0819DF80A0010F0110F10D179077FF502
:1019E00067AF0826ECE730009BD19DF80A00C206DD
:1019F00048BF0426E4D4B90795D5C00793D5072678
:101A0000DEE7002102262161DAE7022604E04FF03A
:101A1000FF300126E06113E0E16111E000F0ABF975
:101A200008B902260CE000EB55200123206204F1E6
:101A300030010246009800F0A3F90028BED001262C
:101A40002069FEF701FDBBE7F0980390BC6C03240E
:101A5000F6FFFF0F5252614172724161AC6B032479
:101A60002DE9FC4715468946984600220646C8F8E7
:101A700000206946FFF770FE040002D1747D20004B
:101A800003D000F098F8204693E0317DC80703D4D6
:101A900000F06CF907208CE0F468B069241AAC42BD
:101AA0002ED92C462CE0670A05EB000A4ED0009A8E
:101AB00079195089884238BF471B00983B465246E7
:101AC000494600F05DF900286AD1317D0A060CD53F
:101AD000306AA0EB0A03BB4207D209EB43204FF464
:101AE000007206F1300101F0F1F97F02D8F8001020
:101AF000E41BB9447918C8F80010B0693F18B76101
:101B0000002C53D0B169CA053CD100F029F912D19B
:101B100009B9B06809E0F06A18B13046FEF7C5FEB1
:101B200003E0F1693046FEF744FD012808D910F1C1
:101B3000010F35D0F061F16900F01DF90100B2D15B
:101B40000220022100F083FA022032E0326A52457C
:101B500016D0307D01060BD50098012306F1300127
:101B6000407801F039F9D8B9307D00F07F00307548
:101B700000980123524606F1300100F001F978B9CE
:101B8000C6F820A0B069274600F0E4F888BF0F46E9
:101B900006F1300101443A46484601F097F9A5E7BD
:101BA0000120012100F053FA012002E000F04CF97D
:101BB0000020BDE8F68700982146FEF7BEBB2DE960
:101BC000FC4714468846994600220746C9F800207B
:101BD0006946FFF7C1FD050002D17D7D280003D0D5
:101BE00000F05BFB2846B3E0387D810703D400F0AA
:101BF000BDF80720ACE0B8692118814225D24FF02A
:101C0000FF34241A21E0C7F820A0B869264600F066
:101C1000A1F888BF0E4607F130033246414618440A
:101C200001F054F9387D40F080003875D9F8001083
:101C3000A41BB0447118C9F80010B8693618BE6109
:101C4000F868B04238BF3046F860002C78D0B969E7
:101C5000CA05DAD100F084F818D111B9B86850B9C2
:101C600006E0F86A18B13846FEF71FFE03E0F9698E
:101C70003846FEF7AAFD002862D0012840D010F1B6
:101C8000010F56D0F861B96801B9B860397D08060E
:101C90000DD500983A6A012307F13001407801F030
:101CA0009BF8002845D1387D00F07F003875F96930
:101CB00000F061F820B3660A05EB000A27D0009A0D
:101CC00071195089884238BF461B009833465246E6
:101CD0004146407801F080F858BB386AA0EB0A0012
:101CE000B0420BD208EB40214FF4007207F13000F4
:101CF00001F0ECF8387D00F07F003875760295E74A
:101D000002200221787500F0A3F9022020E03A6A4F
:101D100052450CD0B869F9688842BFF474AF009896
:101D20000123524607F1300100F02AF800283FF461
:101D30006AAF01200121787500F08AF9012007E0DF
:101D4000387D002140F04000387500F081F9002016
:101D5000BDE8F687C0F30800C0F500718C427047FB
:101D6000009845896D1E15EA512570470098072196
:101D7000FEF7E3BA01460098FEF70EBC04F130010D
:101D8000407801F023B87CB500F0BBF9060038D1EB
:101D9000217D480635D509060AD500F036F828B168
:101DA00000980121FEF7C9FA012076BD00F04AF93A
:101DB00001F0C5F80546616A0098FEF78BFB060046
:101DC0001FD1A66AF07A40F02000F072A268206865
:101DD0003146FEF77BFEE16806F11C00FEF77CFA57
:101DE000294606F11600FEF777FA002106F11200E7
:101DF000FEF76EFA00F0C5FB0646207D00F0BF003E
:101E0000207500F0B1F9304676BD0098226A0123B2
:101E100004F13001407800F0DFBF38B50446FFF729
:101E2000B2FF05000ED169462046FFF795FC05007C
:101E300008D12069FEF708FB050004BF00202060E0
:101E400000F002F8284632BD00980021FEF775BA6E
:101E50002DE9F84F0E4600F054F95FEA000808BF7C
:101E600094F815805FEA080034D1E06A002863D056
:101E700016F1010F2FD18246A0685AF8046B022593
:101E8000F8B107464FF00009AD1C834601462046D5
:101E900009F10109FEF78DFB012840F29E8010F147
:101EA000010F71D0411E5945EFD0AE4205D3CAF89B
:101EB0000090CAF804700AF1080A00998A699042F1
:101EC000DFD3E06AAE42056032BF4FF01108002157
:101ED000CAF80010A8E0E768B74288BF3746002F6D
:101EE000A761F7D07F1E39462046FEF7DEFCE06191
:101EF000FFF740FF060070D00099A2694889401E94
:101F000000EA57208619D1051CBF226A964212D0DA
:101F1000207D010606D50098FFF779FF002807D13C
:101F200000F090F8009801233246FFF727FF0028C1
:101F300040F08180266277E0E068B04203D2227DE3
:101F4000910758BF0646A0690027002EA7614DD013
:101F500000994D896D0268B1401E731EB0FBF5F209
:101F6000B3FBF5F3934205D3691E8843A061361A8B
:101F7000E0690CE0A06848B900212046FEF725FC86
:101F800001282AD010F1010F55D0A060E06128B9D6
:101F90002CE0009A916988421FD2E061B5420CD2D0
:101FA000227DA369761BEB18A361910701462046A9
:101FB0000CD5FEF70AFC58B90026A269B218F10543
:101FC000A26113D0FFF7D6FE70B906E0FEF7F1FA72
:101FD00010F1010F2FD00128DBD8022002216075FB
:101FE00000F036F8022024E000EB5627A069E268F2
:101FF000824204D2217DE06041F040012175C0059C
:102000001CBF226A97420FD0207D010605D500989B
:10201000FFF7FDFE78B900F015F8009801233A4665
:10202000FFF7ACFE38B9276200984146FEF785F904
:102030004046BDE8F28F01200121607500F008F8EC
:102040000120F6E7207D00F07F0020757047707555
:102050000098FEF772B933B5ADF5017D040008BFF5
:10206000092036D00022694682A8FFF749FA050008
:1020700028D1009A01A922600098C1608299204667
:10208000FFF774F8050027D194F82F00020607D453
:10209000A179C80622D5216A0098FEF704FDA06048
:1020A0000099C8880021A0802046FEF73AFC050070
:1020B00012D1A06828B100212046FEF785F900B9A9
:1020C00012252061280001D00020206000F0E5F8F2
:1020D00028460DF5037D30BD042DF3D10525F3E72A
:1020E00038B500F00EF8050009D1206918B1FEF7E7
:1020F000ABF9050001D100202060FFF7A5FE2846BE
:1021000032BD04466946FFF727BB78B5ADF5017DC2
:102110000C4605466946FFF71FFB06001ED12CB989
:1021200000212846FEF7FDFB064617E0009801A9AE
:10213000C16000212846FEF7EBFC0428064601D0CA
:1021400030000BD121462846FEF762FF00212846C9
:10215000FEF72CFC0646042808BF002600F004F811
:1021600030460DF5027D70BD00983146FEF7E5B8AA
:1021700031B5ADF50E7D0C46002269468EA8FFF7FD
:10218000BFF9050013D100980EA9C1608E99684669
:10219000FEF7ECFF05000AD19DF82F10080648BF96
:1021A000062504D41CB121466846FEF731FF00F035
:1021B00074F828460DF50F7D30BD2DE9F14787B045
:1021C000894614460022694607A8FFF799F95FEA95
:1021D00000085AD100982060009A11468D69506914
:1021E000AA1E824228BFC9F800004ED20846002726
:1021F0000178012918D102240190214601A8FEF797
:10220000D8F910F1010F09D001280AD000B97F1CBC
:102210000099641C88698442EFD32DE04FF00108D7
:1022200033E04FF0020830E0466A00240DE0111957
:1022300001F13400FEF741F8000108BF5746241DA4
:102240006D1EC4F3080417D044B900983146761CBB
:10225000FEF740F980465FEA080016D1009A07F1C0
:10226000010A11780229E2D110193430FEF720F862
:1022700000B95746A41CE3E7C9F80070009847610D
:10228000009A517941F00101517100984146FEF7E1
:1022900054F8404608B0BDE8F08700982946FEF79C
:1022A0004CB831B5ADF51E7D022269469EA8FFF7F8
:1022B00027F9050040D100F045F89E99FEF756FF3A
:1022C000050004D1022101A8FEF753F805462800B5
:1022D00032D19DF83310080648BF06252CD49DF84E
:1022E0000A50E80715D409990098FEF7DCFB04466C
:1022F000E80612D5009991948F9100218FA8FEF7DE
:1023000010FB050018D100218FA8FEF701FC050085
:1023100001D1072510E004280ED101A8FEF753FED5
:10232000050003D124B100F09AF80546280003D136
:102330000098FEF7E9F80546FFF7AFFF28460DF5D0
:102340001F7D30BD009A0FA9019201A8D16070478E
:1023500071B5ADF5157D0222694695A8FFF7D0F855
:10236000060076D1009A14A9069206A8D160959924
:10237000FEF7FCFE060008BF08266AD0042868D1D4
:1023800000980021019001A8FEF71FFA04460026DC
:102390000CB9072607E0012C08BF022603D014F170
:1023A000010F08BF012600F0CAFD0546300037D1F5
:1023B00000982146FEF78DFA060031D100982022C0
:1023C0000B21343000F09EFD009A2E23102182F85C
:1023D0003430009880F83F10009A294602F14A00F4
:1023E000FDF77AFF0098224600F13401FEF76EFBFC
:1023F0000099009820223431543000F067FD009994
:102400002E2281F855200098089A00F15401FEF719
:102410005DFB00980121017106A8FEF7B3FC06469A
:10242000300014D10E9829461630FDF755FF0E994D
:1024300000982246FEF74AFB0E9810210122C17235
:1024400000990A710098FEF75FF8064601E000F077
:1024500006F8FFF789FE30460DF5167D70BD0022A7
:10246000214601A8FEF77AB913B5ADF5267DA7A8D8
:10247000FEF7C4FF02226946A6A8FFF741F8040050
:1024800079D1009A25A9179217A8D160A699FEF7CD
:102490006DFE04006FD19DF88B0010F0A00F18BFE7
:1024A000062468D1022117A8FDF763FF040062D15A
:1024B0001F99202201A800F009FD382217A909A8B8
:1024C00000F004FDA79909A8FEF750FE040009D109
:1024D0000B98199A904202BF0E991C98814203D022
:1024E000082448E0042846D109A8FEF74BFC040064
:1024F00036D1119C13220DF1110104F10D0000F0F1
:10250000E5FC9DF80F00E072C1065CBF40F02000C2
:10251000E072009901200871E27AD00622D519995B
:102520000B9881421ED000982146FEF7BCFAFFF7B7
:1025300021FC08B902241EE001460098FDF7CAFFFD
:1025400000990446543120000AD14A782E2A09D134
:102550000B9A0098FEF7BAFA00980121017101E088
:10256000200008D117A8FEF72EFD040003D1009823
:10257000FDF7CAFF0446FFF71EFB20460DF5287D38
:1025800010BD0098012101710098FDF7BDBF2DE934
:10259000F14F8CB00C4615461E460CA8FEF72EFFD8
:1025A000010048BF0B2013D4DFF8340650F8210097
:1025B00008B1002202708DF800109DF8000000F0B4
:1025C000F3FBC10748BF032002D4400748BF0A20DD
:1025D00000F1E8820CB90FF2D4546168029129B974
:1025E0009DF8000002AA032100F004FC029848F2C2
:1025F000010128B1884203D20246401E024201D0A6
:102600000123029322780892607818B10328B8BF9A
:10261000049001DB01220492A06838B1884205D2FF
:102620000109B0EB011108BF0A9002D04FF400720B
:102630000A92E468DFF8AC158C4204D2601E0442B2
:1026400008BF640A00D00024760A079614BF002D44
:10265000112000F0A7820020814601909DF8000023
:1026600001AA012100F0C6FB002840F09A820899D7
:10267000080707D4019A3F2A04D9A2F13F004FF07E
:102680003F090190019980293FD3802C88BF802485
:10269000089800F00300022808BF032606D0089817
:1026A000C10758BF132040F17D82022600F047FC8D
:1026B000019903944018032E0B9040F6F67140F0F8
:1026C0009780039870B90198002301220FF2705C83
:1026D000470C01E05B1C52003CF8130008B1874234
:1026E000F8D20392019A039800234FF0200809932F
:1026F000B2FBF0F29700DFF8F00407F20727821828
:102700007F0ADFF8E804824221D38DE00EF1010E4A
:10271000520037F81E0008B18342F7D20392019AA3
:102720000398B2FBF0F78F4202D37F003F1D05E014
:1027300007EB470701267F1C7F08FF1C0A9807F25A
:10274000FF177F0A4FF001084001400A09900498E2
:1027500008EB090A099BDDF808C0029A00FB07A0F4
:102760001B189C44ACF10100521E9043032EA0EBB9
:10277000030C02D1E044E24410E00498049ABCFB4C
:10278000F0F002FB10C028B1ACF1010C08F1010817
:102790000AF1010A1046BCFBF0F0C719039A019830
:1027A00003EB0213A3EB090398423DD3A0EB08030C
:1027B0000498099ADDF80CC000FB17339B1A032E0E
:1027C000B3FBFCFB4FF6F67207D193452ED25CBBF0
:1027D0005FEA5C0428D0039484E7022E20D193455D
:1027E0004FEA4C0015D374B940280CD80446039422
:1027F0000398002893D1019B4FF0000E01220FF2A5
:1028000030471B0B85E7089B9A0704D503260394E2
:1028100057E78B450AD23CB90446802C04D8E6E73A
:10282000012E03D18B4501D30E20BBE100F0D0F97E
:102830000B220FF2C831284600F048FB4FF400711C
:1028400005F10B00FDF744FD03981FFA88F168734A
:1028500005F10E00FDF73CFD0498032E28740CBF13
:1028600000210A9989B205F11100FDF731FD0198A7
:10287000B0F5803F014605D289B205F11300FDF79E
:1028800027FD03E005F12000FDF726FDF8203F219C
:10289000687505F11800FDF71BFDFF2105F11A0011
:1028A000FDF716FD494605F11C00FDF715FD032E49
:1028B00005F124040B9920D105F14300FDF70CFD2F
:1028C00039462046FDF708FD022105F12C00FDF7F1
:1028D00003FD012105F13000FDF7FAFC062105F1A9
:1028E0003200FDF7F5FC8020292120771322A17703
:1028F0000FF2143105F1470011E005F12700FDF753
:10290000EBFCB9B205F11600FDF7E2FC80212920AD
:1029100021701322A0700FF2043105F12B0000F09A
:10292000D5FA00F04FF900F049F94A4600F055F9A0
:10293000002840F03681032E2BD100F03FF909F139
:10294000060200F04AF900F043F9DFF8A412284625
:10295000FDF7C2FCDFF89C1205F5F270FDF7BCFC38
:10296000ABF1010105F5F470FDF7B6FC022105F5A8
:10297000F670FDF7B1FC00F025F900F01FF909F140
:10298000070200F02AF900F019F909F1010200F03C
:1029900024F9079928460024490200F0A3FA05E02B
:1029A000009C8DF80090CDF81C80641C04998C422A
:1029B00033D2032E0ED16FF007012846FDF78CFCB1
:1029C0004FF0FF31281DFDF787FC6FF0704105F1D6
:1029D000080006E0012E0CBFDFF81C126FF00701A3
:1029E0002846FDF779FC9DF800900094DDF81C80E6
:1029F0003C46C346A04588BFA3465B46524629468F
:102A0000484600F0E9F9002820D100F0E1F8B4EBE5
:102A10000B00DA440446ECD1C2E7032E14BF099C34
:102A2000039C9DF80080DDF81C9003E0BA44E71B8E
:102A30003C460CD04F46A14588BF27463B465246F0
:102A40002946404600F0C8F90028EFD0A9E00395D8
:102A5000032E08BF4FF00C090CD00198B0F5803F51
:102A600028BF4FF0060905D2022E0CBF4FF0040913
:102A70004FF00109089A100700F18D80019905AA0D
:102A8000002305910492012153606A46404600F0FC
:102A9000B1F90028DAD1009F08243F2140F2014219
:102AA000B7FBF4F0B0FBF1F0904203D36406240EC0
:102AB000F6D1FF2403984FF4007126464FF0000A28
:102AC0003F2400F00FFA039800F5DF7BBC4254D29C
:102AD000049850F82A50642D05D80FBF3D46642055
:102AE000B7FBF0F04543281987422CBFA0423D1B9D
:102AF000002D42D021460BF10800FDF7EDFB2946E1
:102B00000BF10C000AF1010AFDF7E6FB3F2032460B
:102B1000B4FBF0F0B0FBF6F102FB1102C0EB801049
:102B20008BF801208A0802F0C0028BF80310201AEB
:102B3000401C10432C198BF80200601E3F213346C5
:102B4000B0FBF1F1B1FBF6F203FB1213C1EB811103
:102B50008BF80530930803F0C0038BF80490401AFB
:102B6000401C1843BAF1030F8BF806008BF80720BE
:102B70000BF1100B01D8002CA8D103984AF655216F
:102B800000F5FF70FDF7A4FB0399012300224046E6
:102B900000F022F928B900220021404600F02AF96D
:102BA00000B101200DB0BDE8F08F0000070000006B
:102BB0000000000000000000000000009DF8000080
:102BC000012370474AF6552105F5FF70FDF780BBDC
:102BD0004FF40071284600F085B9294600F0FCB892
:102BE000C06C0324010000010A00FFFF0000FF0F7A
:102BF0005252614172724161F8FFFF00EBFE904D4D
:102C000053444F53352E30004E4F204E414D4520FA
:102C10002020204641543332202020004E4F204EA9
:102C2000414D4520202020464154202020202000D6
:102C3000010004001000400000010002000000003C
:102C40000100020004000800100020000000000045
:102C50000246002030B5802A38BF104613D3B2F5A3
:102C6000803F10D240F25234A142314B0BD181B29D
:102C700033F81150AA4203D0401C84B2802CF6DBFA
:102C8000803000F0FF0080B230BD024600201346C5
:102C9000802B01DA1046704740F25232914208D13F
:102CA000B3F5807F05DA224800EB4303A3F580717A
:102CB00008887047B0F5803F00D3704780B2B0F508
:102CC000805F30B51B4B05DB03F5FA7302E009B9F1
:102CD00003EB45031A8842B3904226DB5D881B1D37
:102CE000290A05F0FF05AC18A042F0DA821A08297B
:102CF0001BD8DFE801F005080C0E1012141618009E
:102D000033F8120011E002F00102801A0DE01038D1
:102D10000BE0203809E0303807E01A3805E00830C9
:102D200003E0503801E0A0F5E35080B230BD000070
:102D300054820390985A039038B5054610A00F4C62
:102D400000F051FA44F8250000B1012032BD0B49D2
:102D500051F8200000F0B9BA80B5084A4FF47A71F2
:102D600052F8200000F06BFA401E8041C00F02BDF7
:102D7000024951F8200000F08BBA0000C46C032413
:102D80007CAD039001000000000000000000000086
:102D900002461E4910B501EB82048B18187A62684E
:102DA0005168BDE81040084738B5184C0546615DCC
:102DB000002051B904EB85026019007A5368196844
:102DC0008847010004BF0122625532BDF8B500F00A
:102DD00009F8AC68A047F2BDF8B500F003F8EC685C
:102DE000A047F2BD0546094C04EB85076619307A09
:102DF0007D68704770B50446044B03EB84061D19CB
:102E0000287A74682369BDE870401847786C0324F9
:102E1000002200F07BB8F0B40246106895681318E1
:102E2000506803EB5004C00748BF4D44A3422DD067
:102E300013F8016B16F0030004BF13F8010BC01C5C
:102E400031090F2907D113F8011B0F3103E013F8E3
:102E5000017B05F8017B401EF9D10029E6D013F86B
:102E6000010BC6F38107032F08BF13F8017B00EBAA
:102E70000720404228440026B71E8F421EBF10F88C
:102E8000017B05F8017B761CF6D1CFE7F0BC02F19F
:102E90000C00704703000020521E22BF13F8010BE4
:102EA00011F801CBB0EB0C00F6D0521C08BF104655
:102EB00070478268521C8260426832B103685A1CB3
:102EC000026019704168491E416070474AB10000B4
:102ED00011F8013B521E00F8013B1CBF11F8013BE9
:102EE000F8E77047002200F079BB2E00C9B20278E3
:102EF0008A421AB11CBF10F8012FF9E718BF002051
:102F00007047430062F30F2262F31F4200B500BF17
:102F1000130096469446103928BFA0E80C50FAD802
:102F20005FEA417C28BF0CC048BF40F8042BC907AA
:102F300028BF20F8022B48BF00F8012B00BD00205D
:102F40007047000080B5DFF82C12086801F02DF8FA
:102F5000012803D0BDE8014001F007BA01BD10B55A
:102F60000024EFF3058058B901F01FF8012808D0BC
:102F7000EFF31080002804BFEFF31180002800D089
:102F80000124204610BD80B5FFF7E9FF00B127E01E
:102F900001F00BF8012802BFDFF8DC1108680028F7
:102FA00002D101220A6002BD1DE0000010B5FFF74A
:102FB000D6FF08B100F0F8BA00F0F7FF012802BF11
:102FC000DFF8B4010468012C09D10022DFF8AC114C
:102FD0000A700223036000F077FC002010BD5CE063
:102FE0006FF0050002BD4FF0FF3002BD80B5FFF766
:102FF000B6FF18B1BDE8014000F02EBDBDE80140AC
:1030000000F026BDF8B5074684B000200E461446F1
:103010000390FFF7A4FF00283CD138003AD080226B
:103020001823002154B3206800B10146A06918B1EB
:10303000030004D0392B02D22579E80701D50020FE
:1030400029E0606900B18208A568D4F80CC07DB1A0
:10305000BCF15C0F1ED32469002C18BF002819D0C6
:103060000093334602953846019400F0C1FA10E00F
:10307000BCF1000F04BF206900280BD103AC009302
:103080000194334692B2384600F0E6FA012801D0A6
:1030900000200390039805B0F0BD4FF0FF3010BD45
:1030A0004FF08052DFF8C0130A60BFF34F8FBFF3B9
:1030B0006F8F704738B500F01CF810B16FF0050540
:1030C00007E0002C0FBF6FF003050025204600F03D
:1030D000AEFB284632BD38B500F00BF810B16FF0EA
:1030E000050504E0002514B1204600F08CFB2846BD
:1030F00032BD044633E738B504460025FFF72FFFFD
:1031000040B95CB1A068E16830B1202902D301F078
:1031100073F90546284632BD0029FBD101F08CF930
:10312000F7E738B504000D4602D015F07F4F02D006
:103130006FF003051BE0FFF712FF98B100206A460D
:1031400000902946204601F052FA10B96FF00205AE
:103150000DE0204601F0F7F90543009838B1FFF77C
:103160009FFF04E02946204601F0FAF9054628466B
:1031700032BD000010E000E0FC6C03241FED00E015
:103180002DE9FC4105000E4617461C466FF003086A
:1031900026D016F07F4F23D1FFF7E1FE18B1FCB91E
:1031A0006FF005081CE07A0802F00102009407F0B5
:1031B000010382F001023146284601F04CF9FB0779
:1031C000804608EA06006FF002016FF0010202D5A6
:1031D000B04205D000E018B9002C14BF90468846D4
:1031E0004046BDE8F68170B5044600F04EF810BBCD
:1031F00004B1606800F0010500071CD454B1A16857
:10320000E06831B1502816D3BDB1042001F0C0FAF6
:1032100006E080B9002D14BF0420012001F0ADFAB2
:10322000060008D0002C1EBF2168002901F084FE92
:103230000DB146F00106304670BD0120E6E72DE9EC
:10324000F84307460C467D086D0000F01EF810B1EB
:103250006FF0050616E015B96FF0030612E0F807E7
:103260006FF002086FF001092146284602D501F0EF
:10327000B5FA01E001F093FC012803D0002C14BF43
:103280004E4646463046BDE8F2830026FFF767BE4D
:10329000F8B507467C086400FFF7F7FF10B16FF040
:1032A000050610E014B96FF003060CE0F8076FF0A4
:1032B000020503D5204601F078FA01E000F009F894
:1032C000012818BF2E463046F2BD38B544086400C8
:1032D000B7E0002300220021204601F099BAF8B59A
:1032E00006460F4614460025FFF739FEE8B9002EC2
:1032F00018BF002F19D00CB3A368E068BBB15028E9
:1033000013D322698AB1616907FB06F081420CD3AD
:1033100000953946304601F0C3F9050018BF002C6E
:1033200003D0216809B101F007FE2846F2BD00284C
:1033300001BF2169002960690028F6D100223946C1
:10334000304601F0D4F9E8E72DE9FC4100F056F8E9
:1033500090B1002C18BF002D12D08EB90097002319
:103360006A462946204601F0E8FA012817D100985C
:10337000B0B1FFF795FE13E0002C18BF002D02D16D
:103380006FF003070CE0002332462946204601F087
:103390003FFA012804D016B16FF0010700E047465C
:1033A00029E02DE9FC4100F029F888B1002C18BF74
:1033B000002D11D086B900976A462946204601F0B3
:1033C0009FFC012816D10098A8B1FFF769FE12E012
:1033D000002C18BF002D02D16FF003070BE032461E
:1033E0002946204601F055FB012804D016B16FF0A4
:1033F000010700E047463846BDE8F68104460D4621
:103400001E4600276FF00208FFF7A9BD10B50400A3
:1034100001D1002010BDFFF7A2FD60B1EFF31182D2
:10342000502080F3118800F068F8E06BA16B401A1F
:1034300082F3118810BD2046BDE8104001F0CBBCDE
:103440000446FFF78CFD10B16FF005050AE014B9D2
:103450006FF0030506E02046002501F08AFD2046B6
:1034600001F0D3FC284632BD04ED00E0F8B50500BC
:103470000E4608BF00243ED0286A4A4F0024384038
:10348000B84238D1FFF76BFDF0B1A6BB68680022E7
:10349000002101F035FC012802BF286A3840B842FB
:1034A00029D1EFF31186502181F3118800F025F81E
:1034B000284600F08AF8040003D1284600F077F887
:1034C000044686F3118816E06868314601F067FB10
:1034D000012802BF286A3840B8420CD100F01BFF17
:1034E000284600F072F8040003D1284600F05FF887
:1034F000044600F029FF2046F2BDBFF34F8FBFF313
:103500006F8F7047F8B504000D4618BF002D0ED020
:10351000206A24496FF00207084088422FD1A26830
:10352000954221BFE16851184A1EAA4202D26FF0AB
:1035300003062FE0FFF7A9FE002860681AD001F00B
:1035400059FCA16988421AD0EFF31180502383F30C
:103550001188FFF7D2FF22682A60256080F3118866
:1035600000966068694601F045FA009890B1FFF74F
:1035700097FD0FE001F022FCA169884201D13E468F
:1035800008E000F0C8FE20682860256000F0DCFE3E
:1035900000F002F83046F2BD6068002300220021EE
:1035A00001F036B90000ED5E6FF0050010BD10B5FA
:1035B00001460020CA698C69A24205D248698B681D
:1035C0005043521CCA61184410BD014600200A68CD
:1035D00012B1104602680A60704700004018491C8A
:1035E0001CBFB1F1010100F8012DF9D170470000B5
:1035F0002DE9F04385B006460D9C0F46904699464E
:10360000502014B900F017FBFEE70E9D15B900F02D
:1036100012FBFEE75C210091009A5C2A02D000F0C8
:103620000AFBFEE7009A2846FFF75CFC02232C63A6
:1036300085F85930002204A90C9803924B46019159
:103640004246009039460295304600F036F828464A
:1036500000F075F804982DE02DE9F843064617466A
:1036600084B088469946B80001F0C0FC04001FD021
:103670005C2001F0BBFC050017D05C21FFF732FC99
:1036800000202C6385F859000D9903900C98019146
:103690004B4600903A4602954146304600F00DF800
:1036A000284600F04CF8012004E0204601F027FDF8
:1036B0004FF0FF3005B0BDE8F0832DE9F8430A9CD8
:1036C00080460D4617469946A522206BB900FFF7A4
:1036D00019FC226B02EB87010F1FFF08FF0050212E
:1036E00065B10022A85CA31883F83400A85C10B16F
:1036F000521C102AF6D3002084F84300089E382E6E
:1037000004D381F3118800F0BFFBFEE7099DE66258
:10371000E664201D01F055FD04F11800C6F13806DD
:1037200001F04FFD24614A46A66141466462384675
:1037300000F06AFD206005B12C60BDE8F1832DE941
:10374000F04100F05BF8E86C1426DFF8BC77401C11
:10375000E864E86B48BBEC63E96C01292DD14FF0BC
:10376000000806FB08F008F10108384401F01CFDD0
:10377000B8F1380FF5D305F1780005F18C0801F0A8
:1037800013FD404601F010FD284601F00DFD05F146
:10379000140001F009FD05F1280001F005FD05F117
:1037A00078012964C5F8448007E0A86D28B9E16A6A
:1037B000EA6BD06A814228BFEC63A86EE16A401CC4
:1037C00060646A6D8A4238BF69654E43A866381DD9
:1037D000221D805900F0B4FC00F0B6FDA86D58B170
:1037E000EA6BE16AD06A884206D24FF08052DFF875
:1037F00064371A6000F048FBBDE8F0810446DFF84A
:10380000585700F088BD80B570B1DFF84C27516F74
:1038100011B100F00FFAFEE7536F5B1C536700F025
:10382000B6FC00F093F808B900F02AFB01BD70B5B2
:10383000FFF7E4FF00F03AF8A06A18B104F11800AD
:1038400001F0E8FC211D05F1280001F0BDFC00217C
:1038500004F15800002204F15806735C012B08BFE4
:103860004254491C0029F8DD00F06EFDA86D28B116
:1038700000F051FD00F087FB00F066FDE96B8C4223
:1038800013D1A86D38B1696F11B100F0D3F9FEE71B
:1038900000F0F6FA70BDA96AE86C814202D10021FD
:1038A000E96370BDBDE8704085E170BD04B9EC6BA3
:1038B000201D01F0AFBC4143DFF84C06021D5258F9
:1038C000A26070470000000010B586B0002005908F
:1038D00003AA049004A905A8DFF8684701F0AEFC2C
:1038E000059A049902920020039A01910090002306
:1038F00011A10FF21960FFF77BFE88B101F0A8FC5F
:10390000502101280FD181F3118800F0BDFA4FF04A
:10391000FF320121E2660020A165206500F096FCDF
:10392000216F06B010BD10F1010FF9D181F311889C
:1039300000F0AAFAFEE7000049444C4500000000F0
:10394000DFF80017486F401C48677047F8B5DFF88C
:1039500008660024706F002520B900F099F800F087
:1039600093FAFEE700F0D7FC716F491E7167706F24
:10397000002869D1F16C00294BD165E0F068C4687A
:10398000E369A06A216A9960216AE2694A60436832
:1039900004F11802934204BF276A4760A5620368D6
:1039A0005B1E0360A1686069E2688A60E368A768DB
:1039B000211D5F6042688A4204BFE368436065611D
:1039C0000268521E0260D4F82CE0706D704538BF5A
:1039D000C6F854E01422DFF8300502FB0EFE011D8C
:1039E000231D51F80E10A1608F68E7608A68271DBB
:1039F00053608F6000EB0E01616150F80E10491C9E
:103A000040F80E10F26BE16AD06A88423CBF012296
:103A1000326630680028B1D10CB100F0B4FAF46D10
:103A200044B100F039F808B101203066641EF8D1C5
:103A30000021F165306E38B14FF08052DFF8141577
:103A400001250A6000F020FA00F07EFC2846F2BD55
:103A5000DFF8F005006D704780B500F099FCDFF8E5
:103A6000E405006D02BDDFF8DC05C06C704700287E
:103A700002BFDFF8D015C86B002807D1502080F3B3
:103A80001188BFF34F8FBFF36F8FFEE7343070475D
:103A9000502181F3118870472DE9F041DFF8B864B7
:103AA0000024706F002840F08080D6F8508018F114
:103AB0000108C6F8508010D1306C006820B1FFF7C3
:103AC000E7FF00F0E1F9FEE7316C706C306471647F
:103AD000716E491C716600F056FAF76E1422DFF819
:103AE0002814B84554D34CE0336CD868C368586880
:103AF000804558D39F685869DD68BD60DD689F6860
:103B00006F6045681F1DBD4204BFDD68456000252C
:103B10005D6107687F1E0760986AA0B1DF691D6A52
:103B2000BD601D6ADF696F60456803F11807BD421B
:103B300004BF1D6A456000279F62D0F800C0ACF149
:103B4000010CC0F800C0DF6A706DB84238BF7765FD
:103B500057430D1DE85998608568DD60D0F808C0AE
:103B60001D1DCCF804508560C8195861C859401C07
:103B7000C851D6F83CC0D86ADCF82C70874238BFF0
:103B80000124306C00680028AED14FF0FF33F3669B
:103B9000F06BC06A42438958022928BF0124306E65
:103BA00030B1012404E0F066F2E7F06D401CF065EE
:103BB0002046BDE8F08110B5DFF89C43606F10B17E
:103BC0000122226610BD00212166E06B006B0168B6
:103BD000B1F1A53F04BF4268B2F1A53F07D18168AA
:103BE000B1F1A53F04BFC068B0F1A53F05D0E06BBF
:103BF00000F13401E06B01F0AFFC606DDFF80036DE
:103C000000E0401E142242431A44116821B90028E2
:103C1000F7D100F00FF8FEE7536802F108015B6886
:103C200053608B4204BFD36853605268D168E1632C
:103C3000606510BD502080F31188BFF34F8FBFF334
:103C40006F8F704710B50C4610B9FFF7F3FFFEE712
:103C5000DFF80433DA6B02F1180101F0C2FA2046F2
:103C60000121BDE8104000F092BA70B5502520B98E
:103C700085F3118800F008F9FEE7DFF8DC42636F96
:103C800023B985F3118800F0FFF8FEE7E36B41F0FC
:103C9000004199614168E66BF1618D68E36B1D62DB
:103CA000E66B8B6806F118055D60E66B06F118059A
:103CB0008D60E46B0121A06203685B1C0360104609
:103CC000BDE8704000F063BAF8B50B4610B9FFF7D5
:103CD000B1FFFEE74168A04CE76BF9618E68E56BC8
:103CE0002E62E76B8D6807F118066E60E76B07F1CF
:103CF00018068E60E46BA0620168491C01600AB17D
:103D00004FF0FF3311461846BDE8F44000F03FBACB
:103D1000F0B5C168C86810B9FFF78CFFFEE7C2694B
:103D2000816A036A9360046AC56900F118026560DC
:103D30004B68934204BF046A4C600A680023521E19
:103D40000A60854A516F49BB86684169C468B4609E
:103D5000C468856865604E68051DAE4204BFC768CB
:103D60004F6043610D686D1E0D60C46A566DA642BA
:103D700038BF54651421071D4C43DFF884140D1D12
:103D80002D598560AE68C660AE687760061DAE606E
:103D90000D1945610D596D1C0D510EE0516800F172
:103DA0001804C1618D6805628B6800F118055C60BC
:103DB00013468D601168491C11608362D36BC06A21
:103DC000D96A814203D2012301201366F0BD00208D
:103DD000F0BD614BF0B55A6F502422B984F31188BD
:103DE00000F052F8FEE741F000410160C16821B9DE
:103DF00084F3118800F048F8FEE746680269856898
:103E0000B560856844686C605668864204BF856802
:103E10005560002404611068401E10608D68486978
:103E2000CA68AA60CA688C68546045680C1DA542BF
:103E300004BFCA68426000244C6105686D1E0560BD
:103E4000CA6A5C6D944238BF5A6514200E1D424305
:103E5000DFF8AC03041DA4588C60A768CF60A56888
:103E60000F1D6E60A76084184C618458641C8450D8
:103E7000DA6BC96AD06A88423CBF01221A66F0BD7B
:103E80004FF0805133480160BFF34F8FBFF36F8F06
:103E90007047DFF87023516E0160126D4260704709
:103EA000F8B504460D46502014B9FFF7C4FEFEE7EE
:103EB00015B9FFF7C0FEFEE700F02DFADFF8440366
:103EC000D0F850C02B68616813F1010FACEB010210
:103ED0000DD0466E2768BE4201D08C4509D29A4269
:103EE00007D29A1A2A60416E2160026D6260002436
:103EF00002E000200124286044E10121DFF80403EE
:103F000001667047000000000432032470B5DFF83A
:103F1000F042DFF8F05211E000F0FDF9286AC668BF
:103F2000301D01F077F9E96C491EE964A86C401E68
:103F3000A86400F009FA304600F010F8A86C0028D8
:103F4000EAD12268022A01D3FFF79AFF01F002FBAF
:103F5000F4E7000004ED00E09C03002410B50446E3
:103F600094F8590040B9206B01F0C9F82046BDE82B
:103F7000104001F0C4B810BD0128F7D00228FAD0D3
:103F8000FFF758FEFEE7DFF87C12086C006818B9EE
:103F90004FF0FF32CA6670470B6CDA681068C8666B
:103FA0007047DFF86002C06B7047DFF85812886D09
:103FB00008B901207047486F08B9022070470020F7
:103FC0007047F8B504460020002C39D0E16A1D4D39
:103FD000EB6BDA6A91422DD2A669002E04D4EA6B0B
:103FE000D06AC0F13800A061142762697943DFF814
:103FF000106231448A4219D100F026F8E96BC96A8F
:10400000686D884238BF69654F43E162301D221DEB
:10401000C059A0608368E3608168231D4A608360A3
:10402000F0196061F259521CF25108E0E96BC86A5C
:10403000E06204E0E16CEB6BDA6A914200D20120AD
:10404000F2BD00009C030024201D01F0E3B870B510
:1040500004460021002C30D0DFF8A8515022E86B34
:10406000844204D082F31188FFF70EFFFEE7206D33
:1040700020B982F31188FFF707FFFEE7E36A401ECD
:10408000E26C2065934218D0B8B9FFF7DDFFE16C10
:10409000E162C1F13800A0616A6D8A4238BF69658A
:1040A0001420251DFFF707FC9668E6609368261D1F
:1040B0005D60966000F003F80121084670BD42186B
:1040C00062614458641C44507047F8B5040036D00F
:1040D000206D502320B983F31188FFF7D5FEFEE74A
:1040E000E26C914238BF1146E26A8A4227D0012829
:1040F00025D1DFF81051E86B844204D183F3118895
:10410000FFF7C2FEFEE7A369E162002B5CBFC1F1CD
:104110003801A161142661697243DFF8E4703A4402
:1041200091420CD1FFF790FFE16A686D884238BF79
:1041300069654E43221D391D885900F001F8F1BD13
:10414000A0608368E3608168231D4A608360B819BA
:104150006061BA59521CBA517047DFF8A820D06B81
:104160008069D16BD36BDA6AC2F138028A61704719
:10417000DFF89010C86B18B1CA6B106D401C106549
:10418000C86B704700F0E0F82046F2BD0000F8B5BB
:104190001C4E0C46376DF16B0546081D01F03AF8D0
:1041A00015F1010F15D1A4B1F06AF36B9860826824
:1041B000F16BCA60F36B81681A1D4A60F36B06F1FC
:1041C00028011A1D8260F06B4161B26A521CB26212
:1041D000F1BDF06BED19BD424560F06B05D2011DDC
:1041E000706CBDE8F44000F0FCBF011D306C00F0C5
:1041F000F8FFF06E854238BFF566F1BD00000000A3
:10420000043203249C0300244908490010B5A0F19E
:1042100020034FF0807499610FF215011A606FF05E
:104220000202DC61596140F8242D203810BD0000E5
:10423000684A5020516811F1010F80F31188BFF3D3
:104240004F8FBFF36F8F00D0FEE7FEE762496348F0
:104250007CB50A68502300F054F80A68604800F002
:1042600050F80022FF2601925E4A15788DF8015021
:10427000167014788DF800409DF80050554C15F0DC
:104280005005257000F03EF89DF80000C04310F086
:10429000500F0DD083F31188BFF34F8FBFF36F8F93
:1042A000FEE7401C01909DF800305B008DF8003067
:1042B0009DF8005001982B06F3D408280FBF00206A
:1042C0000198C0F10700000200F4E060A0609DF8D2
:1042D000010010700A6A42F47F020A62086A40F024
:1042E0007F40086201F06CF90021616001F0C8F9BB
:1042F0003D48026842F04042026001F0B1F90020FE
:1043000076BD824206D183F31188BFF34F8FBFF38E
:104310006F8FFEE77047502080F31188BFF34F8FF7
:10432000BFF36F8F2B4A5168491C012951600AD194
:104330002E4B1A68110606D080F31188BFF34F8FF9
:10434000BFF36F8FFEE770472249486838B95020A5
:1043500080F31188BFF34F8FBFF36F8FFEE7401ECE
:10436000486008BF80F31188704780B5502080F303
:104370001188BFF34F8FBFF36F8FFFF78DFB18B11D
:104380004FF0805119480160002282F3118801BD6D
:10439000EFF305825020102A0E490BD3144B9B5C7F
:1043A0000A78934206D280F31188BFF34F8FBFF390
:1043B0006F8FFEE789680F4B1A6802F4E062914242
:1043C00006D280F31188BFF34F8FBFF36F8FFEE7E4
:1043D00070470000E001002400ED00E071C20F41D1
:1043E00070C20F4100E400E034EF00E004ED00E0B3
:1043F000F0E300E00CED00E01CB50446502014B9D9
:1044000000F013F8FEE720210091009A202A02D044
:1044100000F00BF8FEE734B10022201D226000F00E
:10442000C3FE01212177204616BD80F31188BFF31A
:104430004F8FBFF36F8F704710B5202000F0D6FD6F
:10444000040006D00021201D216000F0ADFE0020F8
:104450002077204610BD2DE9F84F06469146984634
:104460004FF0000B502426B984F31188FFF7DFFFCB
:10447000FEE78A461AF07F4F04D084F31188FFF7D5
:10448000D6FFFEE7BAF1000F04D184F31188FFF7DD
:10449000CEFFFEE70A9DFFF788FD00B965B9FFF77B
:1044A0004FFA3768424651466FEA0A04384600F030
:1044B00094F830B96DB91DE084F31188FFF7B7FFA8
:1044C000FEE70025B9F1000F14D0306820403060BD
:1044D00010E0B9F1000F18BF4FF0807BB8F1000F6A
:1044E00018BF4BF0806B2A464BEA0A01301D0027AB
:1044F000FFF7BBFBFFF72AFAEDB118B900F01EF881
:10450000FFF795FFFFF729FE0746B80111D4FFF723
:1045100002FF376842465146384600F05EF80028F0
:1045200018BFB9F1000F02D0306804403460FFF7C3
:104530000BFF27F07F473846BDE8F28F4FF08051E0
:104540002E4801607047EFF31182502181F31188EA
:10455000BFF34F8FBFF36F8F006882F311887047EE
:10456000F8B504460E460025502014B9FFF75DFF4C
:10457000FEE716F07F4F02D0FFF757FFFEE7FFF789
:10458000DFF9216822690E43266018E0984215D1B0
:104590005FEACC1048BF1D4341F000711046FFF7A1
:1045A00018FC0BE0D2F800C056685FEA4C172CF0FC
:1045B0007F4301EA0300E9D40028E9D1324604F13F
:1045C0000C0082422168EDD121EA05052560FFF744
:1045D000BDF92068F2BDC3E70000034600200B4090
:1045E0000AB91BB101E08B4200D10120704713468C
:1045F0000A460146024800F090BF000004ED00E0CA
:10460000D745019070B50D460446502114B900F00D
:1046100040F8FEE7E06B002838D04FF0FF32B2FBE5
:10462000F0F2206C824231D3FFF775FE206CE16B13
:104630002268002300FB01F6491E484304F14401AF
:104640001644A6601044A363E0604FF0FF30626040
:104650000870487075B92069A0B104F11000FFF727
:1046600057FB78B14FF08051DFF83009016000F05E
:1046700066F807E004F1100000F096FD04F1240054
:1046800000F092FDFFF760FE012070BD00F001F820
:10469000FEE781F31188BFF34F8FBFF36F8F704731
:1046A0007CB51C46502324B983F3118800F047F8E9
:1046B000FEE708B12AB131B983F3118800F03FF861
:1046C000FEE70029F8D150250095009E502E04D019
:1046D00083F3118800F033F8FEE7069B009E012566
:1046E00084F84650009400F02FF8204676BDF8B5C7
:1046F00004000E4617461CD04FF0FF31B1FBF4F119
:10470000B14216D306FB04F010F1500F11D2503015
:1047100000F06CFC05000AD000213B4685F84610ED
:1047200005F1500200953146204600F00DF828466C
:10473000F2BD00F001F8FEE7502080F31188BFF3CE
:104740004F8FBFF36F8F704738B51D46049C00290B
:104750000CBF24602260E063204621640121FFF742
:1047600051FF84F84C5031BD30B1002100238160ED
:1047700000220160C1604BE070470246002110B585
:104780000120FFF7B4FF0446FFF7EEFF204610BDFF
:104790001CB50B460090002200210120FFF780FF8E
:1047A0000446FFF7E1FF204616BD10B5040002D114
:1047B000FFF7C2FFFEE7FFF7F4FBA16881420BD1D0
:1047C000E068401EE06005D1002300220021204661
:1047D00000F01EF8012010BD002010BD38B5040007
:1047E0000D4602D1FFF7A8FFFEE7FFF7DAFBA1684D
:1047F000814204D1E068401CE060012032BD2946BE
:10480000204600F0CCF910B1E168491CE16032BDEE
:104810002DE9F64782B004461E4600F0C5FA5FEA6D
:10482000010A01D1206C70B9022E02D1E06B01287F
:104830000ED1FFF7BAFB80B9039870B187F31188E6
:10484000FFF77DFFFEE787F31188FFF778FFFEE7AC
:1048500087F31188FFF773FFFEE7274600244FF028
:104860008058DFF838972DE0039800284AD00CB91B
:1048700000F03BFAFFF768FDFFF762F8FFF74BFD2A
:1048800007F1440000F02CFA04BF0021017000F091
:104890001CFA04BF00214170FFF756FD00F01AFA20
:1048A000002844D1FFF737FDB96BF86B814214BF84
:1048B00000250125FFF748FD45BB384600F0FDFA0D
:1048C000FFF744F8FFF727FDB96BF86B814201D37E
:1048D000022EC9D132465146384600F0A7FA796A0D
:1048E00029B107F12400FFF713FA08B904E018B161
:1048F000C9F80080FFF723FFFFF726FD012004B071
:10490000BDE8F087FFF720FD0020F8E7039907F1E5
:104910001000FFF797F9384600F0CFFAFFF716F8C6
:104920000028CFD1C9F80080FFF709FFCAE7384651
:1049300000F0C3FAFFF70AF8E6E72DE9F0470400B4
:10494000894615461E464FF0500804D188F3118859
:10495000FFF7F5FEFEE7B9F1000F01D1206C50BB67
:10496000022E02D1E06B01282AD1FFF711FDEFF3EF
:10497000118A88F31188FFF7E2FEA16BE06B814298
:1049800001D3022E31D194F94570A06B32464946CD
:10499000204600F04BFA17F1010F16D1606A10B3F0
:1049A00004F12400FFF7B4F9002818BF002D1AD035
:1049B0000120286017E088F31188FFF7C0FEFEE7AA
:1049C00088F31188FFF7BBFEFEE7FFF74CF887423C
:1049D00009D27F2F04D188F31188FFF7B0FEFEE7DC
:1049E0007F1C84F84570012000E000208AF31188C4
:1049F000BDE8F0872DE9F04104460D46502624B964
:104A000086F31188FFF79BFEFEE7206C20B186F34A
:104A10001188FFF794FEFEE7206808B9A168F1B994
:104A2000FFF7B6FCEFF3118886F3118800F0B6F9B2
:104A3000E16B884228D294F94570401CA06317F1BD
:104A4000010F11D1606AE8B104F12400FFF760F9A9
:104A5000002818BF002D15D00120286012E086F331
:104A60001188FFF76CFEFEE7FEF7FDFF874209D2D3
:104A70007F2F04D186F31188FFF761FEFEE77F1CCC
:104A800084F84570012000E0002088F31188BDE81B
:104A9000F0812DE9F74306460F460024502526B93C
:104AA00085F31188FFF74BFEFEE70FB9306C48B96C
:104AB000FFF77BFA80B9029870B185F31188FFF790
:104AC0003EFEFEE785F31188FFF739FEFEE730462C
:104AD00000F0F3F9FEF73AFFFFF71DFCB56BDFF8C6
:104AE000BC944FF08058002D35D10298002848D052
:104AF0000CB900F0FAF8FFF727FCFEF721FFFFF7EB
:104B00000AFC06F14400425712F1010F04BF0021D4
:104B1000017000F0DAF804BF00214170FFF714FCC7
:104B200002A900F0D8F8002830462ED100F0F9F99B
:104B30000028CCD0029906F12400FFF783F8304614
:104B400000F0BBF9FEF702FF0028C5D1C9F80080CC
:104B5000FFF7F5FDC0E73946304600F09BF96D1EC2
:104B6000B563306940B106F11000FFF7D1F818B114
:104B7000C9F80080FFF7E3FDFFF7E6FB0120BDE881
:104B8000FE83FFF7E1FB0020F9E700F096F9FEF75E
:104B9000DDFE304600F0C5F900289DD0F3E72DE991
:104BA000F341002482B00546A046502725B987F37B
:104BB0001188FFF7C4FDFEE7286C20B187F3118848
:104BC000FFF7BDFDFEE7FFF7F0F950B9039840B1DC
:104BD00087F31188FFF7B3FDFEE700F08FF8FEF7CB
:104BE000B5FEFFF798FBA86BDFF8B0634FF0805776
:104BF000002836D10398002861D00CB900F075F870
:104C0000FFF7A2FBFEF79CFEFFF785FB00F066F8BE
:104C100004BF0021017000F058F804BF002141706A
:104C2000FFF792FB00F056F8002828462ED100F03E
:104C300078F90028D1D0286838B9FFF76CFBA8684C
:104C4000FFF7BFF98046FFF77FFB00F052F800F056
:104C500055F8FEF77BFE0028C3D13760FFF76FFDE4
:104C6000BFE7401EA863286810B9FFF781FAA86063
:104C7000286938B105F11000FFF74AF810B1376024
:104C8000FFF75DFDFFF760FB01201BE000F015F969
:104C9000FEF75CFE284600F044F90028A1D0B8F1E8
:104CA000000F0ED0FFF737FB686A00281DBF296B85
:104CB0000968C1F138010021A868FFF706FAFFF77B
:104CC00043FB002004B0BDE8F08190F9012012F10F
:104CD000010F704703A96846FFF7E2B805F14400E9
:104CE00090F9002012F1010F704768460124FFF788
:104CF000D0B8039905F12400FEF7A4BF2846DCE0F4
:104D00002DE9F04704008A4615464FF0500904D1BA
:104D100089F31188FFF713FDFEE7BAF1000F01D107
:104D2000206C70B9FFF734FBEFF3118889F3118819
:104D3000FFF705FDA76B4FB9002088F31188BDE888
:104D4000F08789F31188FFF7FAFCFEE794F94460D5
:104D5000514620467F1E00F09DF8A76316F1010F13
:104D60000CD12069C0B104F11000FEF7D1FF00287A
:104D700018BF002D10D0012028600DE0FEF773FE53
:104D8000864209D27F2E04D189F31188FFF7D7FC20
:104D9000FEE7761C84F844600120CEE7BFF34F8F16
:104DA000BFF36F8FA06B7047502734B987F311881A
:104DB000BFF34F8FBFF36F8FFEE7704710B504004E
:104DC00002D1FFF7B9FCFEE7FFF7A5FAA46BFFF7E6
:104DD000BBFA204610BD38B5040002D1FFF7ACFC89
:104DE000FEE7FFF798FAE56BA06B2D1AFFF7ACFA18
:104DF000284632BD38B9502080F31188BFF34F8F59
:104E0000BFF36F8FFEE7806B704710B5040002D1CF
:104E1000FFF792FCFEE700F0ACF894F8460020B9EA
:104E20002046BDE8104000F06AB910BDF8B506464E
:104E30001546B46B326C002742B9316831BBB0689B
:104E4000FFF705F900210746B1601FE065B97068FA
:104E5000FEF73CF8B2687168306C084490427060AC
:104E600014D33168716011E0F068FEF72FF8306CF0
:104E7000F36840421A18F26031688A4202D2B2687E
:104E80001044F060022D01D104B1641E641C384648
:104E9000B463F2BD38B5026C0B466AB1C56881686F
:104EA000AC18C4608C4224BF0468C460C168184652
:104EB000BDE83840FEF70AB831BDF8B5054605F142
:104EC0004404FFF728FA94F9016007E005F1240093
:104ED000FEF71EFF08B1FFF710F8761E70B201282A
:104EE00002DB686A0028F1D14FF0FF366670FFF7E9
:104EF0002BFAFFF710FA94F9007007E005F11000A3
:104F0000FEF706FF08B1FEF7F8FF7F1E78B2012812
:104F100002DB28690028F1D12670BDE8F140FFF7D7
:104F200013BA10B50446FFF7F6F9A06B441EA4416E
:104F3000FFF70AFAE00F10BDF0B5002210B9FFF735
:104F4000FBFBFEE7A1B10026154C04EBC6056F681C
:104F5000B84209D0002A02BF54F83630002B2A4646
:104F6000761C082EF1D300E02A460AB11160506089
:104F7000F0BD10B510B9FFF7DFFBFEE700230849CD
:104F800001EBC3025468844203D05B1C082BF7D3A7
:104F900010BD002041F83300506010BD04ED00E06A
:104FA000106B0324F8B504460D46164604F1380785
:104FB000FFF7B1F997F90C0010F1010F04BF0021C0
:104FC000397397F90D0010F1010F04BF00217973B7
:104FD000FFF7BAF9386828B93246294604F12400A7
:104FE000FEF772FE2046BDE8F24066E72DE9F84381
:104FF00000F0D2F8B8684FF000080025F0B907F1CA
:105000001C0313F0070F07F11C004FF40042014688
:1050100005D0C11DC908C900C1F50043C2188818D0
:105020000838C008C0003960431A7D60B860456028
:1050300005604B60086048683861F860002C4FF0EC
:1050400050094CD014F1080F49D2083414F0070F5E
:1050500009D004F00701C1F108014FF0FF30401AF8
:10506000A0423CD30C19002C39D438D0FA68A242A3
:1050700035D339463E6801E0314606467068A042A5
:1050800002D230680028F7D1B868864227D032684B
:105090000B680A607268121B112A03F108080CD30E
:1050A000311911F0070002D000F022F8FEE7301DA0
:1050B00002510846746000F04CF87068F9683B696A
:1050C000091AF960994288BF1946396140F00040D9
:1050D00070603560796908F00705491C7961FEF751
:1050E00035FC15B100F004F8FEE74046BDE8F28358
:1050F00089F31188BFF34F8FBFF36F8F704700287C
:1051000000D1704738B5A0F1080450226168002929
:1051100004D482F31188FFF7EDFFFEE7206820B189
:1051200082F31188FFF7E6FFFEE721F000411D4DF5
:105130006160FEF705FCE968606841182046E96097
:1051400000F007F8A969491CA961BDE83140FEF7E4
:10515000FDBB144930B50A4600E01A461368834285
:10516000FBD35368D418844203D14068C318104657
:10517000536043681468C518A54208D189688C42F9
:1051800004D06168CB184360246800E00C460460DA
:10519000824218BF106030BD0446024FFEF7D0BBFC
:1051A000000000000C0600244FF0FF3100F108025F
:1051B000816000F1080342600021C3600261016068
:1051C000704700210161704710B542684A609468D9
:1051D0008C6093685960916008610168491C0160A6
:1051E00010BD30B50D6815F1010F08BF046907D077
:1051F00000F1080400E01C4663681A689542FAD280
:1052000062684A6091608C60616008610168491C55
:10521000016030BD10B5446801698268A26082688F
:10522000436853604C68844204BF83684B6000222B
:1052300002610868401E0860086810BD034B0360E7
:1052400003F15C000860802111607047F051032475
:1052500010B586B0DFF8E44200F038F9A068C0B1BC
:10526000002204A9059205A8049203AA00F016FAE8
:10527000059A049902920220039A0191009000235A
:105280000FF2C0210FF29100FEF7B2F90028E060A2
:1052900005D1502181F3118800F007F8FEE70120C5
:1052A00006B010BD502080F31188BFF34F8FBFF3BD
:1052B0006F8F704770B504460D46164604E0A0692E
:1052C000216A451920468847A1692B463246204667
:1052D000491900F0E0F80028F1D170BDF8B5044696
:1052E000964802680D46D168CE68301DFFF792FFE0
:1052F00006F12007397A480705D52A462146304667
:10530000FFF7D8FF02E001F0FE013972304639683C
:10531000BDE8F44008470000F0B585B0874D296826
:10532000086810B90124002602E0C8680024066855
:10533000FEF706FB684600F091F807460098E8B9CA
:1053400044B9B7420BD3FEF701FB39463046FFF7AD
:10535000C5FF1DE069680868441EA441E40FA86801
:105360002246F11BFFF71EFEFEF7F0FA80B94FF060
:10537000805073490860FFF798FF09E0FEF7E6FAEE
:1053800006E094F8280081073DD42046FFF7B7FED9
:10539000A868002201A9FFF77CFB0028BFD0019874
:1053A000002803D504990398029A90470198002891
:1053B000EED4039C606910B1201DFFF72BFF6846F7
:1053C00000F04CF806460198401E0828E0D8DFE8B7
:1053D00000F021211A070621211A0700D8E7D0E79B
:1053E00094F8281041F0010184F828100298A06177
:1053F00010B9FFF757FFFEE78119334632462046C2
:1054000000F049F8C4E794F8281001F0FE0184F890
:105410002810BDE794F82800324640F0010084F8D7
:1054200028000299A0690B464118204600F033F885
:105430000028ADD094F82810480707D50299A06934
:10544000324641182046FFF735FF03E001F0FE0128
:1054500084F82810216A2046884799E770B50446E9
:10546000364EFEF7F5FA0546306985420AD300202C
:1054700035612060284670BDD2684FF0FF3110685A
:10548000FFF72CFF326810680028F5D17168726050
:1054900031600120ECE738B500248A424160274D95
:1054A000006106D3D21A83699A4206D2011D686848
:1054B00007E09A4203D2994201D3012403E0011D7F
:1054C0002868FFF78EFE204632BD00001CB5FEF7AF
:1054D00022FF1A4CA068E0B904F11400FFF764FE43
:1054E00004F12800FFF760FE04F1140204F1280122
:1054F00000202260616004F13C03009004F18C0202
:1055000010210A20FFF7CCF8A06010B10FA1FFF71F
:1055100013FDBDE81340FEF717BF1FB503921C46ED
:1055200022460190054C6FF00103A06800930291A0
:1055300000236946FFF701FA04B010BDA060032400
:1055400004ED00E0546D722053766300546D725187
:10555000000000007047000038B50D460F4C642372
:105560005FF016020EA1204600F0E5F8284601F093
:105570000FF982B264232946204600F0DCF8642348
:105580005FF006020CA1204600F0D5F8502080F311
:105590001188BFF34F8FBFF36F8FFEE7BC64032406
:1055A0000D0A21212120535441434B204F5645528F
:1055B000464C4F573A200000202121210D0A0000BF
:1055C00030B508480025056000238360064C22683A
:1055D0004FF47A710723B2FBF1F1491E4160036079
:1055E00030BD00BF10E000E090020024EFF309801E
:1055F000BFF36F8F264B1A681EF0100F08BF20ED07
:10560000108A20E9F04F106009B44FF0500080F389
:105610001188BFF34F8FBFF36F8FFEF7CCFA4FF0B7
:10562000000080F3118809BC19680868B0E8F04FE1
:105630001EF0100F08BFB0EC108A80F30988BFF38A
:105640006F8F7047124B19680868B0E8F04F80F30D
:105650000988BFF36F8F4FF0000080F31188704707
:105660000C480068006880F308884FF0000080F361
:10567000148862B661B6BFF34F8FBFF36F8F00DF40
:10568000DFF81400016841F4700101607047000008
:10569000D803002408ED00E088ED00E0044B03602F
:1056A00003F15C0008604FF480711160704700BF27
:1056B0006436032438B5040001D1012032BD04F161
:1056C0008405686808B900F01DF800F012F808B108
:1056D00000F027F800F022F8012809D02168486876
:1056E00020F4904048602068816821F02A010EE093
:1056F00032BD2420686020680168490849000160C3
:10570000A06A704700212046297001F06EBA8160BE
:1057100000F00AF8BDE8324000F0B2BC204600F0CC
:10572000C9BA204600F048BC2168086840F0010072
:105730000860204670472DE9F843064606F15407F5
:10574000786B0C4615469846202840D10CB12800AD
:1057500001D101203CE000212120F963786301F0B0
:1057600075FB3D807D80B268B2F5805F04BF316912
:1057700000291ABF21464FF00009A14605460C46F4
:1057800012E000228021304600F0D1FCD8B9306808
:10579000002C12BF14F8011B39F8021BC1F30801D9
:1057A00081627A88511E79807888CDF800802B46F6
:1057B0000028E6D100224021304600F0B8FC10B9A4
:1057C0002021796304E020207863032000E0022098
:1057D000BDE8F2832DE9FC47054605F15C06306B18
:1057E0000C469046994620285DD1002C14BF5FEAF4
:1057F0000800012058D0002222217263002031636A
:10580000306101F023FBA6F80080FF22A6F8028099
:10581000A968B1F5805F04D1296981B940F2FF120E
:105820000DE019B9296951B17F2208E0B1F1805F1B
:1058300007D1296911B97F23B38004E03F22B280E8
:1058400001E00021B180AA68B788B2F5805F04BF8B
:105850002969002919BF22460021002221468046DD
:1058600014468A460CE02868002C406A19BF38406C
:1058700004F8010B38402AF8020B7288511E71801F
:10588000708868B1CDF80090434600222021284658
:1058900000F04DFC0028E6D020203063032003E018
:1058A0002021316300E00220BDE8F68738B50346C9
:1058B000D3F88C0020280AD109B1100001D10120B1
:1058C00032BD00F006F8BDE8384000F078BC022098
:1058D00032BD0024DFF8D803DC661C6884420CD09B
:1058E0006468250209D5186850E8005F45F08065B6
:1058F000044644E800500028F5D11846704738B5F2
:105900000446206850E8002F22F4907200F0D9FC81
:10591000F7D12568DFF8700605F1080353E8003F6A
:1059200005F10801034041E800300028F1D104F1FD
:105930006C052A68012A02D100F048FEFCD12368D8
:105940009868420612D500F0A5F9FCD1686968B1E3
:105950000021C166686901F07FFA38B1686901F019
:10596000D8FA102802D16862032032BD00220F212C
:10597000A4F85E202068016220680021826942F05C
:1059800008028261202028620020296032BD2DE9B2
:10599000F843054640F60F0C2A6805F15C04D66909
:1059A00010460768936816EA0C0F06F0200107F00E
:1059B00020000DD1002914D010B9D80040F19580F5
:1059C000A169002900F05D812846BDE8F44308473D
:1059D000DFF8B8C513EA0C0F04BFDFF8B4E517EA27
:1059E0000E0F00F082805FEAC67948BF5FEAC758B1
:1059F00007D54FF0010EC2F820E0626B42F00102C1
:105A00006263B2070CD5DA070AD5D5F800E00222A6
:105A1000CEF82020D4F8348048F00408C4F834804C
:105A200072070CD5DA070AD5D5F800E00422CEF8C3
:105A30002020D4F8348048F00208C4F834803207BB
:105A40000FD5002808BF13EA0C0F0AD0D5F800C004
:105A50000822CCF82020D4F834E04EF0080EC4F828
:105A600034E0320509D57F0107D52A684FF4006676
:105A70001662676B47F020076763626B002A33D0BA
:105A800031B108B9D80003D5A16909B128468847C2
:105A9000606B2B689A68510602D410F0280F1ED054
:105AA000284600F01FFC28688668720612D52B680D
:105AB00000F0F1F8FBD1606A60B1DFF86418C166EC
:105AC000606A01F011FA00280ED0606AC16EBDE86C
:105AD000F44308472846BDE8F24301F019BB2846C5
